:030000000228854E
:0C288500787FE4F6D8FD7581920228CC23
:10295F000221FFFF0223FFFF0663000000000000BB
:0F296F004200020000420000000042023400005B
:101ECF007F647E00122A81122AB3122B337B007A91
:101EDF000079251208577FC87E00122A817849762B
:101EEF00000876097849E6FE08E6FFEE70F6EF2463
:101EFF00FE602F14700302200414700302201D24AF
:101F0F000370E174FF7821F608F608F608F6E47816
:101F1F0063F608F608F608F608F608F67849F608A4
:101F2F007602900239E4F0A37400F0A37425F07BDD
:101F3F00017A007904122504900239E4F0A37400A9
:101F4F00F0A3744BF0A37401F0A37401F0A374A871
:101F5F00F07B017A0079041216BC7865E6FE08E67C
:101F6F00FF7863A60608A6077867E6FE08E6FF78FF
:101F7F0065A60608A6077B007A00794B122911EF98
:101F8F004E600B7B007A00794B12210480097B0194
:101F9F007A0179A81219DA7867A60608A607786574
:101FAF00E6FE08E6FF7864E6B5071B18E6B50616E9
:101FBF007867E6FC08E6FDB5070CECB50608782354
:101FCF00F608A605800D7821E6FE08E6FF08A606AE
:101FDF0008A6077823E6FE08E6FF7821E6FC08E668
:101FEF00FD122B497823E6FE08E6FF7821A60608A6
:101FFF00A607021EF3E4900002F0A3F0900000F099
:10200F00A3F0900234F0A3F07849F608760490021A
:10201F0039E4F0A37400F0A37425F07B017A007902
:10202F0004122504900239E4F0A37400F0A3744B5A
:10203F00F0A37401F0A37401F0A374A8F07B017AEC
:10204F000079041216BC7B007A00794B122911EF2C
:10205F004E6003021EF37B017A0179A81210719072
:10206F000000EEF0A3EFF0900234E0FAA3E0FB4A99
:10207F007015900000E0FEA3E0FF7C007D0A1204C3
:10208F007A900234EE805C900000E0FEA3E0FF7CCB
:10209F00007D0A12047AAC06AD07EB6D7002EA6C94
:1020AF006045900234E0FFA3E0900002CFF0A3EF71
:1020BF00F0900000E0FEA3E0FF900234ECF0A3EDFF
:1020CF00F07C007D0A12047AAA04AB05900002E0AE
:1020DF00FEA3E0FF7C007D0A120468EF2BFFEE3AAF
:1020EF00900000F0A3EFF0900000E0FEA3E0FF12DD
:0520FF0029F4021EF3AC
:030023000229AA05
:1029AA00C0E0C0D075D000309839C298AF99784944
:1029BA00760008A60718E6FE08E6FF64314E70079F
:1029CA0018F6087601801EEF64334E70087849F6CF
:1029DA000876038010EF64394E700A7849F6087653
:0A29EA00098002C299D0D0D0E0327B
:0F297E00420291000F420293FFFB4202950005B7
:102A8100E4788DF608F6C3788EE69F18E69E50210D
:102A9100E4788FF608F6789006E6187001067890CB
:102AA100E66470184670EF788E06E61870D80680D6
:012AB100D54F
:012AB2002201
:092B8200D291D290C291C29022BE
:072B9400C291D290D2912200
:092B8B00A2009291D290C29022A6
:072B9B00D290A291C290222A
:072ADF00AE07122B827FA657
:102AE600E4788FF608F6EF25E0FF9291D290C29037
:102AF600789006E6187001067890E6640818467025
:042B0600E5022B9B1E
:102B0A00E4FFD291788FF608F6EF25E0FFD290A283
:102B1A0091E4334FFFC290789006E6187001067868
:082B2A0090E66408184670E112
:012B32002280
:102B5A00122ADFAF06122AE6AF05122AE6022B94E2
:10000300122ADFAF06122AE6122B827FA7122AE6F4
:0B001300122B0AD200122B8B122B9430
:01001E0022BF
:102AB300E4FD7F1E122B5A7F1F122B5A7F20122BED
:102AC3005A7D097F2C122B5A1D7F2D122B5A7D8084
:0C2AD3007F2E122B5A7D2B7F31022B5AD4
:1027F5007F32120003788DA6077F33120003788E8F
:10280500EFF6FE18E6FDEDFF900292E02FFF900235
:1028150091E03E8FF01205137F34120003788DA6E8
:10282500077F35120003788EEFF6FE18E6FDEDFF03
:10283500900294E02FFF900293E03EF990023FE072
:10284500FBA3E0FAA3E0C98FF01205137F3612004F
:1028550003788DA6077F37120003788EEFF6FE18F2
:10286500E6FDEDFF900296E02FFF900295E03EF920
:10287500900242E0FBA3E0FAA3E0C98FF002051342
:10298D000214001902080032020C0050020E005A07
:0C299D000210FF380212FE0C020AFEF2CB
:0B085700900236EBF0A3EAF0A3E9F0FA
:1008620090023FE4F0A37400F0A37473F0A3E4F0E9
:10087200A37400F0A37475F07B007A0079711227DB
:10088200F5E47869F608F690023FE4F0A37400F00C
:10089200A3746DF0A3E4F0A37400F0A3746FF07B73
:1008A200007A00796B1227F57F467E00122A81C3F7
:1008B2007972E7786C96FF19E71896FE122B76C3C9
:1008C200EF940AEE648094805077C37974E7786E6F
:1008D20096FF19E71896FE122B76C3EF940AEE6480
:1008E200809480505CC37976E7787096FF19E71898
:1008F20096FE122B76C3EF940AEE648094805041E8
:10090200786BE6FE08E6FF786AE6FD75F006A42439
:1009120077F8A60608A607786DE6FE08E6FFED75ED
:10092200F006A42479F8A60608A607786FE6FE0862
:10093200E6FFED75F006A4247BF8A60608A607805C
:1009420008786AE61618700116786BE6FE08E6FF6C
:100952007871A60608A607786DE6FE08E6FF7873AA
:10096200A60608A607786FE6FE08E6FF7875A606D3
:1009720008A607786A06E618700106C3786AE69444
:100982000318E66480948050030208897978E77836
:100992007E26FF19E71836FEEF788426FFEE18361A
:1009A200FEC3E49FFFE49EFE7C007D0312047AAC4A
:1009B20006AD07EC120336900236E0FBA3E0FAA381
:1009C200E0F91205BD797AE7788026FF19E7183633
:1009D200FEEF788626FFEE1836FEC3E49FFFE49E04
:1009E200FE7C007D0312047AAC06AD07EC120336DE
:1009F200900236E0FBA3E0FAA3E0F99000041205AE
:100A0200D7797CE7788226FF19E71836FEEF7888D7
:100A120026FFEE1836FEC3E49FFFE49EFE7C007DB7
:100A22000312047AAC06AD07EC120336900236E0EC
:100A3200FBA3E0FAA3E0F99000081205D7900004A6
:100A420012058DA804A905AA06AB0712011EC0044F
:100A5200C005C006C007900236E0FBA3E0FAA3E09F
:100A6200F912056DA804A905AA06AB0712011ED04A
:100A720003D002D001D00012002DC004C005C00670
:100A8200C007900236E0FBA3E0FAA3E0F990000869
:100A920012058DA804A905AA06AB0712011ED003F0
:100AA200D002D001D00012002D1226B3788912068E
:100AB2009C900236E0FBA3E0FAA3E0F912056D7800
:100AC20089120623120227900236E0FBA3E0FAA362
:100AD200E0F99000181205D790000412058D78896C
:100AE200120623120227900236E0FBA3E0FAA3E0EB
:100AF200F990001C1205D790000812058D78891212
:100B02000623120227900236E0FBA3E0FAA3E0F9E3
:100B12009000201205D790023FE4F0A37400F0A3E6
:100B2200746DF0A3E4F0A37400F0A3746FF07B0083
:100B32007A00796B1227F5E47869F608F67877F689
:100B420008F608F608F608F608F6C3786AE6940A84
:100B520018E6648094804003020C99C3796CE778AC
:100B62007296FF19E71896FE122B76C3EF9414EED5
:100B7200648094804003020C99C3796EE77874967E
:100B8200FF19E71896FE122B76C3EF9414EE6480D9
:100B920094804003020C99C37970E7787696FF1926
:100BA200E71896FE122B76C3EF9414EE64809480BD
:100BB2004003020C99786BE6FC08E6FDEC12033662
:100BC200900236E0FBA3E0FAA3E0F912064C120011
:100BD2002D12036F122B76D3EF9482EE64809480F1
:100BE2004003020C67900236E0FBA3E0FAA3E0F9AF
:100BF20090000412066CC000C001C002C003786DF0
:100C0200E6FC08E6FDEC120336D003D002D001D098
:100C12000012002D12036F122B76D3EF9482EE6432
:100C22008094805040900236E0FBA3E0FAA3E0F902
:100C320090000812066CC000C001C002C003786FA9
:100C4200E6FC08E6FDEC120336D003D002D001D058
:100C52000012002D12036F122B76D3EF9482EE64F2
:100C62008094804032786BE6FE08E6787826F618A3
:100C7200EE36F6786DE6FE08E6787A26F618EE3657
:100C8200F6786FE6FE08E6787C26F618EE36F678F9
:100C92006A06E618700106786AE6640A1846605524
:100CA200786BE6FE08E6FF7871A60608A607786D5F
:100CB200E6FE08E6FF7873A60608A607786FE6FE4A
:100CC20008E6FF7875A60608A60790023FE4F0A39F
:100CD2007400F0A3746DF0A3E4F0A37400F0A374A5
:100CE2006FF07B007A00796B1227F57F327E00125B
:100CF2002A81020B4C7877E6FE08E6FF7C007D0A2B
:100D020012047AAC06AD07EC120336900236E0FB11
:100D1200A3E0FAA3E0F912064C12002D900236E08D
:100D2200FBA3E0FAA3E0F990000C1205D7900004AF
:100D320012066CC000C001C002C0037879E6FE084A
:100D4200E6FF7C007D0A12047AAC06AD07EC1203C2
:100D520036D003D002D001D00012002D900236E02E
:100D6200FBA3E0FAA3E0F99000101205D790000867
:100D720012066CC000C001C002C003787BE6FE0808
:100D8200E6FF7C007D0A12047AAC06AD07EC120382
:100D920036D003D002D001D00012002D900236E0EE
:100DA200FBA3E0FAA3E0F99000141205D790001417
:100DB20012058D90001C12066C12011EC004C005A3
:100DC200C006C007900236E0FBA3E0FAA3E0F99068
:100DD200002012058D90001012066C12011ED00325
:100DE200D002D001D000120029900236E0FBA3E02D
:100DF200FAA3E0F91205BD900236E0FBA3E0FAA3E4
:100E0200E0F990000C12058D90002012066C120180
:100E12001EC004C005C006C007900236E0FBA3E076
:100E2200FAA3E0F990001812058D90001412066CD6
:100E320012011ED003D002D001D00012002990026C
:100E420036E0FBA3E0FAA3E0F99000041205D79084
:100E5200001012058D90001812066C12011EC004BB
:100E6200C005C006C007900236E0FBA3E0FAA3E08B
:100E7200F990001C12058D90000C12066C12011ED6
:100E8200D003D002D001D000120029900236E0FB3C
:100E9200A3E0FAA3E0F99000081205D7900004122B
:100EA200058DA804A905AA06AB0712011EC004C03D
:100EB20005C006C007900236E0FBA3E0FAA3E0F902
:100EC20012056DA804A905AA06AB0712011ED003DC
:100ED200D002D001D00012002DC004C005C006C04F
:100EE20007900236E0FBA3E0FAA3E0F990000812B3
:100EF200058DA804A905AA06AB0712011ED003D0CE
:100F020002D001D00012002D1226B3788912069C5D
:100F1200900236E0FBA3E0FAA3E0F9C003C002C0EE
:100F22000112056D7889120623120227D001D00220
:100F3200D0031205BD900236E0FBA3E0FAA3E0F96C
:100F420090000412058D788912062312022790025E
:100F520036E0FBA3E0FAA3E0F99000041205D79073
:100F6200000812058D788912062312022790023694
:100F7200E0FBA3E0FAA3E0F99000081205D7900085
:100F82002012058D90000412066C12011EC004C0CE
:100F920005C006C007900236E0FBA3E0FAA3E0F921
:100FA20090000812058D90001C12066C12011ED0D2
:100FB20003D002D001D000120029900236E0FBA338
:100FC200E0FAA3E0F990000C1205D7900008120590
:100FD2008D90001812066C12011EC004C005C006D6
:100FE200C007900236E0FBA3E0FAA3E0F9900020EC
:100FF20012058D90000812066C12011ED003D00259
:10100200D001D000120029900236E0FBA3E0FAA33F
:10101200E0F99000101205D790000412058D90009F
:101022001812066C12011EC004C005C006C007904B
:101032000236E0FBA3E0FAA3E0F990001C12058D52
:1010420012064C12011EA804A905AA06AB07D00776
:10105200D006D005D004120029900236E0FBA3E0AE
:0F106200FAA3E0F99000141205D77F4B022B6A16
:0B1C5B0090023CEBF0A3EAF0A3E9F0DC
:101C66001204B0786BA6F008F69000021204DB7836
:101C76006DA6F008F69000041204DB786FA6F00853
:101C8600F690023FE0FBA3E0FAA3E0F9900004120D
:101C9600066CC000C001C002C003786DE6FC08E611
:101CA600FDEC120336D003D002D001D00012011E83
:101CB600C004C005C006C007786BE6FC08E6FDEC6C
:101CC60012033690023FE0FBA3E0FAA3E0F9120606
:101CD6004C12011ED003D002D001D00012002DC03C
:101CE60004C005C006C00790023FE0FBA3E0FAA3CC
:101CF600E0F990000812066CC000C001C002C003E3
:101D0600786FE6FC08E6FDEC120336D003D002D06D
:101D160001D00012011ED003D002D001D000120063
:101D26002D12036F90023CE0FBA3E0FAA3E0F9EE6C
:101D36008FF012051390023FE0FBA3E0FAA3E0F94F
:101D460090001012066CC000C001C002C003786D7E
:101D5600E6FC08E6FDEC120336D003D002D001D033
:101D66000012011EC004C005C006C00790023FE075
:101D7600FBA3E0FAA3E0F990000C12066CC000C0C9
:101D860001C002C003786BE6FC08E6FDEC120336E0
:101D9600D003D002D001D00012011ED003D002D051
:101DA60001D00012002DC004C005C006C007900275
:101DB6003FE0FBA3E0FAA3E0F990001412066CC022
:101DC60000C001C002C003786FE6FC08E6FDEC1215
:101DD6000336D003D002D001D00012011ED003D0AA
:101DE60002D001D00012002D12036F90023CE0FBDE
:101DF600A3E0FAA3E0F9900002EE8FF0120532900C
:101E0600023FE0FBA3E0FAA3E0F990001C12066C87
:101E1600C000C001C002C003786DE6FC08E6FDEC18
:101E2600120336D003D002D001D00012011EC00426
:101E3600C005C006C00790023FE0FBA3E0FAA3E09E
:101E4600F990001812066CC000C001C002C00378E9
:101E56006BE6FC08E6FDEC120336D003D002D00197
:101E6600D00012011ED003D002D001D00012002DE6
:101E7600C004C005C006C00790023FE0FBA3E0FA1D
:101E8600A3E0F990002012066CC000C001C002C099
:101E960003786FE6FC08E6FDEC120336D003D002A9
:101EA600D001D00012011ED003D002D001D0001202
:101EB600002D12036F90023CE0FBA3E0FAA3E0F9C9
:091EC600900004EE8FF0020532D9
:0B250400900236EBF0A3EAF0A3E9F030
:10250F00E47869F608F67869E6FE08E6FFC39446B4
:10251F00EE6480948040030225DC7C007D0612046B
:10252F0068900236E0FBA3E0FAA3E02FF9EA3EFA47
:10253F00C003C002C001900236A3E0FAA3E02FF956
:10254F00EA3EFAE92402F9E43AFA90023FEBF0A3EB
:10255F00EAF0A3E9F0900236A3E0FAA3E02FF9EA3C
:10256F003EFAE92404F9E43AFA900242EBF0A3EAC6
:10257F00F0A3E9F0D001D002D0031227F57869E675
:10258F00FE08E6FF7C007D06120468900236E0FB31
:10259F00A3E0FAA3E02FF9EA3EFAC002C001A3E0DC
:1025AF00F9A3E0FAA3E090023FC9F0A3EAF0A3E990
:1025BF00F0D001D002121C5B7F027E00122A8178BC
:0D25CF006A06E618600302251506022515B0
:0125DC0022DC
:0B16BC00900236EBF0A3EAF0A3E9F087
:1016C700E4786BF608F608F608F608F608F608F662
:1016D700087601081206B40000000078771206B4F5
:1016E70000000000787B1206B400000000E478696F
:1016F700F608F67869E6FE08E6FFC39446EE6480CE
:10170700948040030218497C007D06120468900209
:1017170036E0FBA3E0FAA3E02FF9EA3EFA900004D3
:101727001204DBFD786AE625E0FF18E633FE900237
:101737003CE0FBA3E0FAA3E0F98F828E83E5F08D0E
:10174700F01205327873120623C000C001C002C030
:1017570003900236E0FBA3E0FAA3E0F97869E6FE1E
:1017670008E6F5828E8374061206FE1204DBFFAECE
:10177700F0EE3395E0FDFCD003D002D001D000EBB2
:101787002FFFEA3EFEE93DFDE83CFC787312069C1C
:101797007877120623C000C001C002C0037869E64B
:1017A700FE08E6FF7C007D06120468900236E0FB27
:1017B700A3E0FAA3E02FF9EA3EFA9000021204DB55
:1017C700FFAEF0EE3395E0FDFCD003D002D001D0A0
:1017D70000EB2FFFEA3EFEE93DFDE83CFC7877127F
:1017E700069C787B120623C000C001C002C00378A4
:1017F70069E6FE08E6FF7C007D0612046890023663
:10180700E0FBA3E0FAA3E02FF9EA3EFA9000041206
:1018170004DBFFAEF0EE3395E0FDFCD003D002D041
:1018270001D000EB2FFFEA3EFEE93DFDE83CFC78E6
:101837007B12069C786A06E61860030216FA06020F
:1018470016FAE47B46FAF9F8C00078731205FBD064
:1018570000122A3DEC120331900239E0FBA3E0FAB3
:10186700A3E0F91205BDE47B46FAF9F8C0007877E2
:101877001205FBD000122A3DEC120331900239E029
:10188700FBA3E0FAA3E0F99000081205D7E47B4632
:10189700FAF9F8C000787B1205FBD000122A3DEC5C
:1018A700120331900239E0FBA3E0FAA3E0F99000BC
:1018B700101205D7E47869F608F6900236E0FBA324
:1018C700E0FAA3E0F97869E6FE08E6F5828E83740C
:1018D700061206FE1204DBFDACF0EC120336900292
:1018E70039E0FBA3E0FAA3E0F912064C1200291233
:1018F700036F122B76900239E0FBA3E0FAA3E0F91D
:10190700900004EE8FF01205327869E6FE08E6FFD4
:101917007C007D06120468900236E0FBA3E0FAA380
:10192700E02FF9EA3EFA9000021204DBFDACF0EC7E
:10193700120336900239E0FBA3E0FAA3E0F9900026
:101947000812066C12002912036F122B76900239C7
:10195700E0FBA3E0FAA3E0F990000CEE8FF012058C
:10196700327869E6FE08E6FF7C007D06120468907F
:101977000236E0FBA3E0FAA3E02FF9EA3EFA900073
:10198700041204DBFDACF0EC120336900239E0FBE5
:10199700A3E0FAA3E0F990001012066C12002912D6
:1019A700036F122B76900239E0FBA3E0FAA3E0F96C
:1019B700900014EE8FF0120532786A06E61870016F
:1019C70006C3786AE6944618E6648094805003025A
:0219D70018C135
:0119D90022EB
:102911009000041204DBFF7814E6FC08E6FDC3EF27
:102921009DEC6480F8E5F0648098502E90000C12C4
:1029310004DBC39DEC6480F8E5F0648098501B9043
:1029410000141204DBC378159618E66480F8E5F0EC
:0E29510064809850057E007F0122E4FEFF2284
:10210400900236EBF0A3EAF0A3E9F0900236E0FB8C
:10211400A3E0FAA3E0F990001012058DC004C005F5
:10212400C006C0077810E6FC08E6FDEC120336A8EA
:1021340004A905AA06AB07D007D006D005D004121F
:1021440002C4600740057E007F0122900236E0FB56
:10215400A3E0FAA3E0F912056DE4FBFA79F0784202
:102164001202C47E00600640047F0180027F0012D8
:102174002B76EF4E7003022211900236E0FBA3E0AF
:10218400FAA3E0F990000812058DE4FBFAF9F812BD
:1021940002C45079900236E0FBA3E0FAA3E0F99080
:1021A400001012058DC004C005C006C0077808E6FB
:1021B400FC08E6FDEC120336A804A905AA06AB0741
:1021C400D007D006D005D0041202C46040403E902F
:1021D4000236E0FBA3E0FAA3E0F990001012058DAB
:1021E400C004C005C006C0077810E6FC08E6FDEC94
:1021F400120336A804A905AA06AB07D007D006D057
:1022040005D0041202C450057E007F0222900236DB
:10221400E0FBA3E0FAA3E0F912056D12036F122BA1
:1022240076D3EF9496EE64809480503C900236E02E
:10223400FBA3E0FAA3E0F990000812058DE4FBFA91
:10224400794878C31202C46002501D900236E0FB44
:10225400A3E0FAA3E0F990001012058DE4FBFA79EB
:10226400C878421202C450057E007F0822E4FEFFB3
:012274002247
:0B19DA00900236EBF0A3EAF0A3E9F066
:1019E500E47869F608F608F608F608F608F6081227
:1019F50006B40000000078731206B400000000125F
:101A050004B0FF900239E5F0F0A3EFF09000021268
:101A150004DBFF90023BE5F0F0A3EFF09000041229
:101A250004DBFF90023DE5F0F0A3EFF07869760066
:101A3500087601900239E0FEA3E0FFA3E0FCA3E0F5
:101A4500FDC39FEE6480F8EC6480985070A3E0FEBF
:101A5500A3E0FFC3ED9FEE6480F8EC648098505DD1
:101A6500C3ED9406EC6480947F5052786CE625E0D3
:101A7500FF18E633FE743F2FF58274023EF583ECC2
:101A8500F0A3EDF07873120623C000C001C002C0B8
:101A95000390023BE0FCA3E0FDEC120336D003D03B
:101AA50002D001D00012002D787312069C786E06C4
:101AB500E618700106786C06E6187001067869E686
:101AC500FE08E6FF64444E7002805C90023BE0FD38
:101AD500A3E0900239CDF0A3EDF090023DE0FDA327
:101AE500E090023BCDF0A3EDF0EF2402FFE43EFED3
:101AF500EF25E0FFEE33FE900236E0FBA3E0FAA30C
:101B0500E0F98F828E831204DBFF90023DE5F0F051
:101B1500A3EFF0786A06E618700106786AE664466F
:101B250018466003021A38786DE6FC08E6FDEC12EB
:101B35000336C004C005C006C00778731205FBD084
:101B450003D002D001D000120227786F12069C78CC
:101B5500731206B400000000E4786DF608F67869A3
:101B6500F608F67869E6FE08E6FFC3786C9618E68F
:101B75006480F8EE6480985073EF25E0FFEE33FE45
:101B8500743F2FF58274023EF583E0FCA3E0FDEC83
:101B9500120336786F1206231202C460444042785D
:101BA50073120623C000C001C002C003786AE6258F
:101BB500E0FF18E633FE743F2FF58274023EF5838D
:101BC500E0FCA3E0FDEC120336D003D002D001D037
:101BD5000012002D787312069C786E06E6187001C7
:101BE50006786A06E618700106021B68786DE6FC41
:101BF50008E6FDEC120336C004C005C006C0077830
:101C0500731205FBD003D002D001D0001202277851
:101C15006F12069C786EE618467003FEFF22781256
:101C2500E6FC08E6FDEC120336786F120623120275
:101C3500C450057E007F0522780AE6FC08E6FDEC27
:101C4500120336786F1206231202C450057E007FF8
:051C55000422E4FEFF83
:011C5A002267
:0B107100900236EBF0A3EAF0A3E9F0D8
:10107C00E47869F608F608F608F608F608F608F6B5
:10108C0008763208F608F608F608F608F608F6743C
:10109C00FF08F608F6E408F608F6081206B4000095
:1010AC000000787F1206B40000000078871206B4A6
:1010BC0000000000788B1206B4000000001204B08F
:1010CC00FF900239E5F0F0A3EFF09000021204DB80
:1010DC00FF90023BE5F0F0A3EFF09000041204DB6C
:1010EC00FF90023DE5F0F0A3EFF07869760008760A
:1010FC00017869E6FC08E6FDC39446EC64809480B4
:10110C0040030212B7900239E0FEA3E0FFA3E0FA1D
:10111C00A3E0FBC39FEE6480F8EA6480984003026E
:10112C0011B3A3E0FEA3E0FFC3EB9FEE6480F8EAEB
:10113C006480985072C3EB9406EA6480947F4003F9
:10114C00021256786CE625E0FF18E633FE743F2F4A
:10115C00F58274023EF583EAF0A3EBF074612FF58F
:10116C008274023EF583ECF0A3EDF0788B1206232B
:10117C00C000C001C002C00390023BE0FCA3E0FD34
:10118C00EC120336D003D002D001D00012002D781F
:10119C008B12069C787606E618700106786C06E6CB
:1011AC0018700106021256900239E0FEA3E0FFA36C
:1011BC00E0FCA3E0FDD39FEE6480F8EC64809850D3
:1011CC0003021256A3E0FEA3E0FFD3ED9FEE648072
:1011DC00F8EC6480984073D3ED9406EC6480947FB3
:1011EC004068786CE625E0FF18E633FE743F2FF577
:1011FC008274023EF583ECF0A3EDF07869E6FC080E
:10120C00E6FD74612FF58274023EF583ECF0A3EDDC
:10121C00F07887120623C000C001C002C003900200
:10122C003BE0FCA3E0FDEC120336D003D002D0016E
:10123C00D00012002D788712069C787406E6187080
:10124C000106786C06E6187001067869E6FE08E679
:10125C00FF64444E7002805390023BE0FDA3E0908B
:10126C000239CDF0A3EDF090023DE0FDA3E0900239
:10127C003BCDF0A3EDF0EF2402FFE43EFEEF25E0C2
:10128C00FFEE33FE900236E0FBA3E0FAA3E0F98F09
:10129C00828E831204DBFF90023DE5F0F0A3EFF0A9
:1012AC00786A06E6187001060210FD7875E6FC08EF
:1012BC00E6FDEC120336C004C005C006C007788BEF
:1012CC001205FBD003D002D001D000120227787B8C
:1012DC0012069C7873E6FC08E6FDEC120336C0049B
:1012EC00C005C006C00778871205FBD003D002D01A
:1012FC0001D000120227787F12069CE4786DF60864
:10130C00F6788B1206B400000000E47875F608F647
:10131C0078871206B400000000E47873F608F678BB
:10132C0069F608F67869E6FE08E6FFC3786C96184D
:10133C00E66480F8EE6480984003021498EF25E090
:10134C00FFEE33FE743F2FF58274023EF583E0FC12
:10135C00A3E0FDEC120336787F1206231202C45070
:10136C005A786AE625E0FD18E633FC743F2DF582C9
:10137C0074023CF583E0FAA3E0FB786EE625E0FF0F
:10138C0018E633FE743F2FF58274023EF583EAF0C3
:10139C00A3EBF074612DF58274023CF583E0FCA3A1
:1013AC00E0FD74612FF58274023EF583ECF0A3ED41
:1013BC00F00806E61870010602148D786AE625E03E
:1013CC00FF18E633FE743F2FF58274023EF583E07E
:1013DC00FCA3E0FDEC120336787B1206231202C448
:1013EC006002500302148D786AE625E0FD18E6339E
:1013FC00FC743F2DF58274023CF583E0FAA3E0FB0C
:10140C00786EE625E0FF18E633FE743F2FF5827404
:10141C00023EF583EAF0A3EBF074612DF5827402C1
:10142C003CF583E0FCA3E0FD74612FF58274023E71
:10143C00F583ECF0A3EDF0788B120623C000C0010D
:10144C00C002C003786AE625E0FF18E633FE743F5D
:10145C002FF58274023EF583E0FCA3E0FDEC120351
:10146C0036D003D002D001D00012002D788B12069A
:10147C009C787606E618700106786E06E618700100
:10148C0006786A06E6187001060213307875E6FCD9
:10149C0008E6FDEC120336C004C005C006C0077890
:1014AC008B1205FBD003D002D001D000120227789A
:1014BC007B12069C7876E618467003FEFF22787B3A
:1014CC00120623E4FFFE7DB47CC3120227788F1230
:1014DC00069C788F1205FB9002871206A87F007E6F
:1014EC00007D207C41122275788312069CC39002E9
:1014FC0040E0940690023FE06480947F5008E478CA
:10150C0077F608F6800778777600087601E4787924
:10151C00F608F67869F60876017869E6FE08E6FFC3
:10152C00C3786E9618E66480F8EE648098400302E7
:10153C00167AEF25E0FFEE33FE743F2FF58274022E
:10154C003EF583E0FCA3E0FDC39406EC6480947F3D
:10155C0050177878E664011846700EF608F6787223
:10156C0006E61870010602165BC3ED9406EC648067
:10157C00947F50437878E61846703C786AE625E00C
:10158C00FF18E633FE74612FF58274023EF583E09A
:10159C00FEA3E0C3787A96FDEE1896FC120336781B
:1015AC00831206231202C4400302166F787206E6F9
:1015BC0018700106021651786AE625E0FF18E6332A
:1015CC00FE743F2FF58274023EF583E0FCA3E0D35A
:1015DC009406EC6480947F40157878E61846700E7B
:1015EC00F6087601787206E6187001068061786A52
:1015FC00E625E0FF18E633FE743F2FF58274023EB9
:10160C00F583E0FCA3E0D39406EC6480947F405314
:10161C007878E664011846704A74612FF58274027A
:10162C003EF583E0FEA3E0C3787A96FDEE1896FCB7
:10163C0012033678831206231202C45026787206DF
:10164C00E618700106786AE625E0FF18E633FE74AA
:10165C00612FF58274023EF583E0FEA3E07879A653
:10166C000608F6786A06E618700106021525781247
:10167C00E6FC08E6FDEC120336787B120623120218
:10168C00C45006787274328019780AE6FC08E6FDBC
:10169C00EC120336787B1206231202C4500A7872BD
:0F16AC00742826F618E436F67871E6FE08E6FF95
:0116BB00220C
:0C2B6A008F99C2AC3099FDC299D2AC2208
:102B3300759850E4F587438920758DFD758BFDD21B
:062B43008ED2AFD2AC22DD
:102B4900EFB50505EEB5040122EF2430FF122B6A1B
:012B59002259
:0429F400AB07AA067D
:1029F800EB4A700122E47869F608F67C007D0AAF9C
:102A080003AE0212047AC3786AE69DEC6480F5F09E
:102A180018E6648095F0501C7C007D0AAF03AE0276
:102A280012047AEF2430FF122B6A786A06E61870CF
:042A3800CA0680C783
:012A3C002277
:0425DD00AB05AA049C
:1025E100EF2477FF122B6A7F3D122B6AD3EB940005
:1025F100EA648094805004EB4A70077F2B122B6AA7
:10260100800C7F2D122B6AC3E49BFBE49AFA7C2792
:102611007D10AF03AE0212047AEF2430900297F0DE
:102621007C277D10AF03AE0212047AAA04AB057CAD
:10263100037DE8AF03AE0212047AEF2430A3F07CED
:10264100037DE8AF03AE0212047AAA04AB057C0055
:102651007D64AF03AE0212047AEF2430A3F07C0054
:102661007D64AF03AE0212047AAA04AB057C007D3F
:102671000AAF03AE0212047AEF2430A3F07C007D8E
:102681000AAF03AE0212047AAA04AB05EB2430FEB2
:10269100900298E0FF122B6AA3E0FF122B6AA3E0DD
:0E26A100FF122B6AAF06122B6A7F20022B6AF3
:100026000203DBE86480F8E933E83360110460F02A
:10003600ED33EC337009E8FCE9FDEAFEEBFF220440
:1000460060DED3EB9FEA9EE99DE8C2E78CF0C2F73B
:1000560095F0400CE8CCF8E9CDF9EACEFAEBCFFB07
:100066001203A685D0F05804700320D5B3E80470B7
:10007600075002B2D50203E592D5EC0460F7E4CC52
:10008600C0E0C398F8603B94186008400DD0E0FBD0
:100096000203BDE4FBFAC9FC8028E830E406E4C9A3
:1000A600FBE4CAFCE830E305E4C9CACBFCE8540724
:1000B6006010F8C3E913F9EA13FAEB13FBEC13FC2F
:1000C600D8F130F52FC3E49CFCEF9BFFEE9AFEEDD2
:1000D60099FDD0E0FBEF4E4D4C701222DB0302037C
:1000E600E2EC2CFCEF33FFEE33FEED33FDED30E7B3
:1000F600EB0203BDEF2BFFEE3AFEED39FDD0E0FB40
:1001060050130BBB00030203E5ED13FDEE13FEEFE8
:0801160013FFEC13FC0203BD12
:10011E00EC4D6011E8497017ED33EC3304600DE4DB
:10012E00FCFFFEFD22E933E8330470F80203DB1214
:10013E0003A658046009E4CC248150062850090215
:10014E0003E52840030203E2C0E0EB4A7044B980A5
:10015E0006D0E0FB0203D1EF4E701CBD8008EBFF12
:10016E00EAFEE9FD80EBE98DF0A4FEE5F002020760
:10017E00E9CDF9EAFEEBFFEF89F0A4FCE5F0CE89BC
:10018E00F0A42EFFE435F0CD89F0A42DFEE435F079
:10019E008067EF4E7005BD80D780C3EF8BF0A4ACA7
:1001AE00F0EE8BF0A42CFCE435F0F8EF8AF0A42CE2
:1001BE00E5F038FCE433CB8DF0A42CFCE5F03BF8F5
:1001CE00EE8AF0A42CFCE5F038F8E433CF89F0A4E5
:1001DE002CFCE5F038CF3400CE89F0A42FFFE5F0EB
:1001EE003EFEE433C98DF0A42EFEE5F039CD8AF043
:1001FE00A42FFFE5F03EFEE43DFD33D0E0FB5007BB
:10020E000BBB000F0203E5EC2CFCEF33FFEE33FECD
:06021E00ED33FD0203BDFB
:100224000203E5EC5D046005E8590470030203DB96
:100234001203A6580460F6EC4860F2EC7004FDFE6C
:10024400FF22C860DB2481C85009C39860025006AD
:100254000203E29850CAF582E9294B4A7005AB8241
:100264000203D175F0007C1A7880C3EF9BEE9AEDFF
:1002740099400DC3EF9BFFEE9AFEED99FDE842F025
:10028400DC23ACF0D0E0FFD0E0FED0E0FDAB822078
:10029400E7101BEB60BAEC2CFCEF33FFEE33FEED02
:1002A40033FD0203BDE803F830E705C0F075F00044
:1002B400EF2FFFEE33FEED33FD40B830E7C280AAE6
:1002C40074F8CC6480CCC86480C8F582046043C3ED
:1002D400EB9FF5F0EA9E42F0E99D42F0E89C45F080
:1002E40060305018E5825FFFE582F42B5582FB50A5
:1002F400210ABA001D09B90019088016E5825BFBC2
:10030400E582F42F5582FF50090EBE00050DBD0095
:10031400010CC3EB9FF5F0EA9E42F0E99D42F0E840
:0D0324009C45F06007CC4820E701B3EC22B7
:1003310075F020800E75F010800575F0087D007E47
:10034100007F003392D530D50312055FEC334010A6
:10035100EF33FFEE33FEED33FDEC33FCD5F0ED2250
:0E036100E5F0247EA2D513CC92E7CDCEFF228C
:10036F00EDD2E7CD33EC3392D524814006E4FFFE86
:10037F00FDFC22FCE4CFCECDCC24E0501174FF80E5
:10038F00EDC3CC13CCCD13CDCE13CECF13CF047082
:07039F00F030D5DE02055F1E
:1026AF000203DB22EDA2E7D2E7F9EC3340F260F34D
:1026BF00B4FF08ED547F70E80203E5F82481C2E00F
:1026CF00C0E0F40428FAC313FCED92E7FD90023941
:1026DF001206A8EEA2E7E9BA7F02C31334009400F2
:1026EF00FA75F091A4E5F013F494FE8AF0A433E5A3
:1026FF00F033248CD313FDE492E7FE7F007C3F750B
:10270F008302ECC0E0F8EDC0E0F9EEC0E0FAEFC0F4
:10271F00E0FB8583F090023912060785F0831202E1
:10272F0027D0E0FBD0E0FAD0E0F9D0E0F812002D8E
:10273F00ED6480FD30E7011CD583C7ED33CC33F852
:0C274F00D0E0A2E71328C313CC13FD2236
:102275009002831206A8E4FFFE7D807C3F900283D6
:10228500E0F8A3E0F9A3E0FAA3E0FB1202C47006AC
:102295009002830223CF900283E0FCA3E0FDA3E03C
:1022A500FEA3E0FF1203F0FBA3E0FCA3E0FDA3E027
:1022B500FEA3E0FF1203F0FFB40108E4FFFE7D80FA
:1022C5007C3F22EF64046029EB64046024EBB401D5
:1022D50030E4FFFEFDFC900287E0F8A3E0F9A3E0FF
:1022E500FAA3E0FB1202C460084006E4FFFEFDFC11
:1022F500229002871206CDFFFFFFFF90028702237F
:10230500CFE490028BF0A3F0FFFEFDFC900283E08A
:10231500F8A3E0F9A3E0FAA3E0FB1202C4505F9032
:102325000287E0FCA3E0FDA3E0FEA3E0FF12036F3C
:1023350090028BEEF0A3EFF0FDCCEECCEC12033661
:10234500C8ECC8C9EDC9CAEECACBEFCB900287E08D
:10235500FCA3E0FDA3E0FEA3E0FF120029E4FBFAE5
:10236500F9F81202C4708A900283E0FCA3E0FDA391
:10237500E0FEA3E0FF12040A9002831206A8900271
:1023850083E0FCA3E0FDA3E0FEA3E0FF12240F9091
:102395000287E0F8A3E0F9A3E0FAA3E0FB12011E2F
:1023A5001227939002871206A890028CE030E0175E
:1023B500900287E0FCA3E0FDA3E0FEA3E0FF12048A
:1023C5000A9002871206A8900287E0FCA3E0FDA30D
:0623D500E0FEA3E0FF2280
:1003A600E9D2E7C933E833F892D5EDD2E7CD33EC9D
:0703B60033FC5002B2D52216
:1003BD00EC30E7100FBF000C0EBE00080DBD0004A1
:1003CD000BEB6014A2D5EB13FCED92E7FD2274FF4D
:1003DD00FCFDFEFF22E480F8A2D574FF13FC7D80A6
:0303ED00E480EFBA
:1003F000ED33EC33601004700FED547F7005740220
:0A04000092E0227404220422E42298
:10040A00ED33EC33600A047003BD8004ECB2E7FC00
:01041A0022BF
:10275B0033DA929E35B16011377FE5FE39218489DA
:10276B003AAEC3FF3C1D955B3D6358473E75FDF08C
:10277B003F3172183F800000C2D50203E50203DB34
:10278B00BD80FA50F30203E2ED33EC330460F17BCE
:10279B003B7AAA79B8783F12011EED33EC3392D510
:1027AB00247B5011A2D570DB500BED4480240450D8
:1027BB0004A2D580CEEFFBEEFAEDF9ECF812036F25
:1027CB00EFF582F404FC12033B12002DC08290271C
:1027DB005B740912042AED33CC33D0F092D525F07B
:0A27EB00A2D57001C313CC13FD2228
:1023DB003E9248DA3ECCCCCD3F2AAAAB400000005F
:1023EB003F8000003F9837F03FB504F33FD744FCE4
:1023FB003E3172173EB172173F0515913EDE5BD928
:10240B00D2008002C200EDD2E7F8CD33EC3304707A
:10241B000BBD800592D50203E50203DB40FBD31411
:10242B0060F2F5F07C3FEE7A00C39496C8948B4033
:10243B00230AC89469C8941A401A0AC89468C894A5
:10244B001F40110AC8945AC89425400805F07A0019
:10245B00CDC2E7CDC0F090028D1206A8EA2323C0AF
:10246B00E024EBF582E43423F58312063C12002DB5
:10247B00ECC0E0EDC0E0EEC0E0EFC0E01206139060
:10248B00028D120630120029D0E0FBD0E0FAD0E02A
:10249B00F9D0E0B2E7F812022790028D1206A8904D
:1024AB0023DB740312041B90028D12063012011EE3
:1024BB00D0E0600F24F7F582E43423F58312063C59
:1024CB0012002D90028D1206A8D0E0C3947FFDE47C
:1024DB009400FC1203367B187A727931783F120123
:1024EB001E90028D12063012002D30000B7BD97A14
:0924FB005B79DE783E12011E221D
:10041B00C0E0EFFBEEFAEDF9ECF812011ED0E0F5BF
:10042B00F0EFFBEEFAEDF9ECF8120613A3A3A3A37E
:10043B00E8C0E0E9C0E0EAC0E0EBC0E0C0F01201C8
:10044B001E12063CA3A3A3A312002DD0F0D0E0FBF9
:0D045B00D0E0FAD0E0F9D0E0F8D5F0D422DE
:10289100021ECFE493A3F8E493A34003F68001F270
:1028A10008DFF48029E493A3F85407240CC8C33348
:1028B100C4540F4420C8834004F456800146F6DF17
:1028C100E4800B010204081020408090295FE47E1F
:1028D100019360BCA3FF543F30E509541FFEE4930C
:1028E100A360010ECF54C025E060A840B8E493A3D3
:1028F100FAE493A3F8E493A3C8C582C8CAC583CAFE
:10290100F0A3C8C582C8CAC583CADFE9DEE780BEB5
:0129A900002D
:10046800EF8DF0A4A8F0CF8CF0A428CE8DF0A42EA8
:02047800FE2262
:10047A00C2D5EC30E709B2D5E4C39DFDE49CFCEE9D
:10048A0030E715B2D5E4C39FFFE49EFE12070FC3FF
:10049A00E49DFDE49CFC800312070F30D507C3E4FA
:0604AA009FFFE49EFE220C
:1004B000BB010A89828A83E0F5F0A3E02250068717
:1004C000F009E71922BBFE07E3F5F009E3192289D9
:0B04D000828A83E493F5F0740193220C
:1004DB00BB0110E58229F582E5833AF583E0F5F05F
:1004EB00A3E0225009E92582F886F008E622BBFE3C
:1004FB000AE92582F8E2F5F008E222E5832AF58382
:08050B00E993F5F0A3E9932246
:10051300BB010A89828A83F0E5F0A3F0225006F733
:0F05230009A7F01922BBFE06F3E5F009F3192230
:10053200F8BB0111E58229F582E5833AF583E8F0FB
:10054200E5F0A3F0225009E92582C8F608A6F022B8
:0D055200BBFE09E92582C8F2E5F008F2229F
:102A3D00C2D5E830E70FB2D5E4C39BFBE49AFAE4C4
:102A4D0099F9E498F8EC30E717B2D5122A7312070A
:102A5D00A0E4C39BFBE49AFAE499F9E498F88003A7
:102A6D001207A030D50DE4C39FFFE49EFEE49DFD4B
:042A7D00E49CFC22B7
:0E055F00C3E49FFFE49EFEE49DFDE49CFC22AD
:10056D00BB010789828A830206075005E9F8020557
:10057D00FBBBFE05E9F802083289828A8302061365
:10058D00BB010DE58229F582E5833AF58302060765
:10059D005007E92582F80205FBBBFE07E92582F825
:1005AD00020832E58229F582E5833AF583020613C6
:1005BD00BB010789828A830206A85005E9F8020665
:0A05CD009CBBFE05E9F802084B2272
:1005D700BB010DE58229F582E5833AF5830206A87A
:1005E7005007E92582F802069CBBFE07E92582F839
:0405F70002084B2289
:0C05FB00E6FC08E6FD08E6FE08E6FF222C
:0C060700E0FCA3E0FDA3E0FEA3E0FF2266
:10061300E493FC740193FD740293FE740393FF222D
:0D062300E6FB08E6F908E6FA08E6CBF82247
:0C063000E0F8A3E0F9A3E0FAA3E0FB224D
:10063C00E493F8740193F9740293FA740393FB2214
:10064C00BB010789828A830206305005E9F802064D
:10065C0023BBFE05E9F802083E89828A8302063C28
:10066C00BB010DE58229F582E5833AF5830206305C
:10067C005007E92582F8020623BBFE07E92582F81C
:10068C0002083EE58229F582E5833AF58302063CB1
:0C069C00ECF608EDF608EEF608EFF6228A
:0C06A800ECF0A3EDF0A3EEF0A3EFF022C5
:1006B400D083D082E493F608740193F6087402930D
:0906C400F608740393F674047344
:1006CD00A8828583F0D083D0821206E41206E4124C
:1006DD0006E41206E4E473E493A3C583C5F0C58371
:1006ED00C8C582C8F0A3C583C5F0C583C8C582C877
:0106FD0022DA
:1006FE00F5F0C582A4C582C5F0C583A42583F58314
:01070E0022C8
:0C2B7600EE30E707C3E49FFFE49EFE2260
:10070F00BC000BBE0029EF8DF084FFADF022E4CCCE
:10071F00F875F008EF2FFFEE33FEEC33FCEE9DEC97
:10072F00984005FCEE9DFE0FD5F0E9E4CEFD22EDDD
:10073F00F8F5F0EE8420D21CFEADF075F008EF2F27
:10074F00FFED33FD4007985006D5F0F222C398FD18
:05075F000FD5F0EA22B5
:1007640075F008758200EF2FFFEE33FECD33CDCC4C
:1007740033CCC58233C5829BED9AEC99E5829840CF
:100784000CF582EE9BFEED9AFDEC99FC0FD5F0D6AC
:10079400E4CEFBE4CDFAE4CCF9A88222B800C1B9D6
:1007A4000059BA002DEC8BF084CFCECDFCE5F0CB14
:1007B400F97818EF2FFFEE33FEED33FDEC33FCEB4D
:1007C40033FB10D703994004EB99FB0FD8E5E4F908
:1007D400FA227818EF2FFFEE33FEED33FDEC33FCF5
:1007E400C933C910D7059BE99A4007EC9BFCE99AE9
:1007F400F90FD8E0E4C9FAE4CCFB2275F010EF2F2E
:10080400FFEE33FEED33FDCC33CCC833C810D7072D
:100814009BEC9AE899400AED9BFDEC9AFCE899F868
:0E0824000FD5F0DAE4CDFBE4CCFAE4C8F922FB
:0C083200E2FC08E2FD08E2FE08E2FF2202
:0D083E00E2FB08E2F908E2FA08E2CBF8223A
:0C084B00ECF208EDF208EEF208EFF222E9
:00000001FF
